{
  "_format": "hh-sol-artifact-1",
  "contractName": "EventTicketSystem",
  "sourceName": "contracts/EventTicketSystem.sol",
  "abi": [
    {
      "inputs": [
        {
          "internalType": "address",
          "name": "_owner",
          "type": "address"
        }
      ],
      "stateMutability": "nonpayable",
      "type": "constructor"
    },
    {
      "inputs": [
        {
          "internalType": "address",
          "name": "sender",
          "type": "address"
        },
        {
          "internalType": "uint256",
          "name": "tokenId",
          "type": "uint256"
        },
        {
          "internalType": "address",
          "name": "owner",
          "type": "address"
        }
      ],
      "name": "ERC721IncorrectOwner",
      "type": "error"
    },
    {
      "inputs": [
        {
          "internalType": "address",
          "name": "operator",
          "type": "address"
        },
        {
          "internalType": "uint256",
          "name": "tokenId",
          "type": "uint256"
        }
      ],
      "name": "ERC721InsufficientApproval",
      "type": "error"
    },
    {
      "inputs": [
        {
          "internalType": "address",
          "name": "approver",
          "type": "address"
        }
      ],
      "name": "ERC721InvalidApprover",
      "type": "error"
    },
    {
      "inputs": [
        {
          "internalType": "address",
          "name": "operator",
          "type": "address"
        }
      ],
      "name": "ERC721InvalidOperator",
      "type": "error"
    },
    {
      "inputs": [
        {
          "internalType": "address",
          "name": "owner",
          "type": "address"
        }
      ],
      "name": "ERC721InvalidOwner",
      "type": "error"
    },
    {
      "inputs": [
        {
          "internalType": "address",
          "name": "receiver",
          "type": "address"
        }
      ],
      "name": "ERC721InvalidReceiver",
      "type": "error"
    },
    {
      "inputs": [
        {
          "internalType": "address",
          "name": "sender",
          "type": "address"
        }
      ],
      "name": "ERC721InvalidSender",
      "type": "error"
    },
    {
      "inputs": [
        {
          "internalType": "uint256",
          "name": "tokenId",
          "type": "uint256"
        }
      ],
      "name": "ERC721NonexistentToken",
      "type": "error"
    },
    {
      "inputs": [
        {
          "internalType": "address",
          "name": "owner",
          "type": "address"
        }
      ],
      "name": "OwnableInvalidOwner",
      "type": "error"
    },
    {
      "inputs": [
        {
          "internalType": "address",
          "name": "account",
          "type": "address"
        }
      ],
      "name": "OwnableUnauthorizedAccount",
      "type": "error"
    },
    {
      "anonymous": false,
      "inputs": [
        {
          "indexed": true,
          "internalType": "address",
          "name": "owner",
          "type": "address"
        },
        {
          "indexed": true,
          "internalType": "address",
          "name": "approved",
          "type": "address"
        },
        {
          "indexed": true,
          "internalType": "uint256",
          "name": "tokenId",
          "type": "uint256"
        }
      ],
      "name": "Approval",
      "type": "event"
    },
    {
      "anonymous": false,
      "inputs": [
        {
          "indexed": true,
          "internalType": "address",
          "name": "owner",
          "type": "address"
        },
        {
          "indexed": true,
          "internalType": "address",
          "name": "operator",
          "type": "address"
        },
        {
          "indexed": false,
          "internalType": "bool",
          "name": "approved",
          "type": "bool"
        }
      ],
      "name": "ApprovalForAll",
      "type": "event"
    },
    {
      "anonymous": false,
      "inputs": [
        {
          "indexed": false,
          "internalType": "uint256",
          "name": "eventId",
          "type": "uint256"
        },
        {
          "indexed": false,
          "internalType": "uint256",
          "name": "attendeeCount",
          "type": "uint256"
        }
      ],
      "name": "AttendanceVerified",
      "type": "event"
    },
    {
      "anonymous": false,
      "inputs": [
        {
          "indexed": false,
          "internalType": "uint256",
          "name": "eventId",
          "type": "uint256"
        },
        {
          "indexed": false,
          "internalType": "string",
          "name": "eventName",
          "type": "string"
        }
      ],
      "name": "EventCreated",
      "type": "event"
    },
    {
      "anonymous": false,
      "inputs": [
        {
          "indexed": true,
          "internalType": "address",
          "name": "previousOwner",
          "type": "address"
        },
        {
          "indexed": true,
          "internalType": "address",
          "name": "newOwner",
          "type": "address"
        }
      ],
      "name": "OwnershipTransferred",
      "type": "event"
    },
    {
      "anonymous": false,
      "inputs": [
        {
          "indexed": false,
          "internalType": "uint256",
          "name": "ticketId",
          "type": "uint256"
        },
        {
          "indexed": false,
          "internalType": "uint256",
          "name": "eventId",
          "type": "uint256"
        },
        {
          "indexed": false,
          "internalType": "address",
          "name": "buyer",
          "type": "address"
        }
      ],
      "name": "TicketBought",
      "type": "event"
    },
    {
      "anonymous": false,
      "inputs": [
        {
          "indexed": false,
          "internalType": "uint256",
          "name": "ticketId",
          "type": "uint256"
        },
        {
          "indexed": false,
          "internalType": "address",
          "name": "from",
          "type": "address"
        },
        {
          "indexed": false,
          "internalType": "address",
          "name": "to",
          "type": "address"
        }
      ],
      "name": "TicketTransferred",
      "type": "event"
    },
    {
      "anonymous": false,
      "inputs": [
        {
          "indexed": true,
          "internalType": "address",
          "name": "from",
          "type": "address"
        },
        {
          "indexed": true,
          "internalType": "address",
          "name": "to",
          "type": "address"
        },
        {
          "indexed": true,
          "internalType": "uint256",
          "name": "tokenId",
          "type": "uint256"
        }
      ],
      "name": "Transfer",
      "type": "event"
    },
    {
      "inputs": [
        {
          "internalType": "address",
          "name": "to",
          "type": "address"
        },
        {
          "internalType": "uint256",
          "name": "tokenId",
          "type": "uint256"
        }
      ],
      "name": "approve",
      "outputs": [],
      "stateMutability": "nonpayable",
      "type": "function"
    },
    {
      "inputs": [
        {
          "internalType": "address",
          "name": "owner",
          "type": "address"
        }
      ],
      "name": "balanceOf",
      "outputs": [
        {
          "internalType": "uint256",
          "name": "",
          "type": "uint256"
        }
      ],
      "stateMutability": "view",
      "type": "function"
    },
    {
      "inputs": [
        {
          "internalType": "uint256",
          "name": "_eventId",
          "type": "uint256"
        }
      ],
      "name": "buyTicket",
      "outputs": [],
      "stateMutability": "nonpayable",
      "type": "function"
    },
    {
      "inputs": [
        {
          "internalType": "string",
          "name": "_eventName",
          "type": "string"
        },
        {
          "internalType": "string",
          "name": "_eventDate",
          "type": "string"
        },
        {
          "internalType": "string",
          "name": "_location",
          "type": "string"
        },
        {
          "internalType": "string",
          "name": "_eventImage",
          "type": "string"
        },
        {
          "internalType": "uint256",
          "name": "_totalTickets",
          "type": "uint256"
        }
      ],
      "name": "createEvent",
      "outputs": [],
      "stateMutability": "nonpayable",
      "type": "function"
    },
    {
      "inputs": [],
      "name": "currentEventId",
      "outputs": [
        {
          "internalType": "uint256",
          "name": "",
          "type": "uint256"
        }
      ],
      "stateMutability": "view",
      "type": "function"
    },
    {
      "inputs": [],
      "name": "currentTicketId",
      "outputs": [
        {
          "internalType": "uint256",
          "name": "",
          "type": "uint256"
        }
      ],
      "stateMutability": "view",
      "type": "function"
    },
    {
      "inputs": [
        {
          "internalType": "uint256",
          "name": "",
          "type": "uint256"
        }
      ],
      "name": "events",
      "outputs": [
        {
          "internalType": "string",
          "name": "eventName",
          "type": "string"
        },
        {
          "internalType": "string",
          "name": "eventDate",
          "type": "string"
        },
        {
          "internalType": "string",
          "name": "location",
          "type": "string"
        },
        {
          "internalType": "string",
          "name": "eventImage",
          "type": "string"
        },
        {
          "internalType": "uint256",
          "name": "totalTickets",
          "type": "uint256"
        },
        {
          "internalType": "address",
          "name": "eventOwner",
          "type": "address"
        },
        {
          "internalType": "uint256",
          "name": "attendanceCount",
          "type": "uint256"
        }
      ],
      "stateMutability": "view",
      "type": "function"
    },
    {
      "inputs": [
        {
          "internalType": "uint256",
          "name": "tokenId",
          "type": "uint256"
        }
      ],
      "name": "getApproved",
      "outputs": [
        {
          "internalType": "address",
          "name": "",
          "type": "address"
        }
      ],
      "stateMutability": "view",
      "type": "function"
    },
    {
      "inputs": [
        {
          "internalType": "address",
          "name": "_user",
          "type": "address"
        }
      ],
      "name": "getUserEvents",
      "outputs": [
        {
          "internalType": "uint256[]",
          "name": "",
          "type": "uint256[]"
        }
      ],
      "stateMutability": "view",
      "type": "function"
    },
    {
      "inputs": [
        {
          "internalType": "address",
          "name": "_user",
          "type": "address"
        }
      ],
      "name": "getUserTickets",
      "outputs": [
        {
          "internalType": "uint256[]",
          "name": "",
          "type": "uint256[]"
        }
      ],
      "stateMutability": "view",
      "type": "function"
    },
    {
      "inputs": [
        {
          "internalType": "address",
          "name": "owner",
          "type": "address"
        },
        {
          "internalType": "address",
          "name": "operator",
          "type": "address"
        }
      ],
      "name": "isApprovedForAll",
      "outputs": [
        {
          "internalType": "bool",
          "name": "",
          "type": "bool"
        }
      ],
      "stateMutability": "view",
      "type": "function"
    },
    {
      "inputs": [],
      "name": "name",
      "outputs": [
        {
          "internalType": "string",
          "name": "",
          "type": "string"
        }
      ],
      "stateMutability": "view",
      "type": "function"
    },
    {
      "inputs": [],
      "name": "owner",
      "outputs": [
        {
          "internalType": "address",
          "name": "",
          "type": "address"
        }
      ],
      "stateMutability": "view",
      "type": "function"
    },
    {
      "inputs": [
        {
          "internalType": "uint256",
          "name": "tokenId",
          "type": "uint256"
        }
      ],
      "name": "ownerOf",
      "outputs": [
        {
          "internalType": "address",
          "name": "",
          "type": "address"
        }
      ],
      "stateMutability": "view",
      "type": "function"
    },
    {
      "inputs": [],
      "name": "renounceOwnership",
      "outputs": [],
      "stateMutability": "nonpayable",
      "type": "function"
    },
    {
      "inputs": [
        {
          "internalType": "address",
          "name": "from",
          "type": "address"
        },
        {
          "internalType": "address",
          "name": "to",
          "type": "address"
        },
        {
          "internalType": "uint256",
          "name": "tokenId",
          "type": "uint256"
        }
      ],
      "name": "safeTransferFrom",
      "outputs": [],
      "stateMutability": "nonpayable",
      "type": "function"
    },
    {
      "inputs": [
        {
          "internalType": "address",
          "name": "from",
          "type": "address"
        },
        {
          "internalType": "address",
          "name": "to",
          "type": "address"
        },
        {
          "internalType": "uint256",
          "name": "tokenId",
          "type": "uint256"
        },
        {
          "internalType": "bytes",
          "name": "data",
          "type": "bytes"
        }
      ],
      "name": "safeTransferFrom",
      "outputs": [],
      "stateMutability": "nonpayable",
      "type": "function"
    },
    {
      "inputs": [
        {
          "internalType": "address",
          "name": "operator",
          "type": "address"
        },
        {
          "internalType": "bool",
          "name": "approved",
          "type": "bool"
        }
      ],
      "name": "setApprovalForAll",
      "outputs": [],
      "stateMutability": "nonpayable",
      "type": "function"
    },
    {
      "inputs": [
        {
          "internalType": "bytes4",
          "name": "interfaceId",
          "type": "bytes4"
        }
      ],
      "name": "supportsInterface",
      "outputs": [
        {
          "internalType": "bool",
          "name": "",
          "type": "bool"
        }
      ],
      "stateMutability": "view",
      "type": "function"
    },
    {
      "inputs": [],
      "name": "symbol",
      "outputs": [
        {
          "internalType": "string",
          "name": "",
          "type": "string"
        }
      ],
      "stateMutability": "view",
      "type": "function"
    },
    {
      "inputs": [
        {
          "internalType": "uint256",
          "name": "",
          "type": "uint256"
        }
      ],
      "name": "tickets",
      "outputs": [
        {
          "internalType": "uint256",
          "name": "eventId",
          "type": "uint256"
        }
      ],
      "stateMutability": "view",
      "type": "function"
    },
    {
      "inputs": [
        {
          "internalType": "uint256",
          "name": "tokenId",
          "type": "uint256"
        }
      ],
      "name": "tokenURI",
      "outputs": [
        {
          "internalType": "string",
          "name": "",
          "type": "string"
        }
      ],
      "stateMutability": "view",
      "type": "function"
    },
    {
      "inputs": [
        {
          "internalType": "address",
          "name": "from",
          "type": "address"
        },
        {
          "internalType": "address",
          "name": "to",
          "type": "address"
        },
        {
          "internalType": "uint256",
          "name": "tokenId",
          "type": "uint256"
        }
      ],
      "name": "transferFrom",
      "outputs": [],
      "stateMutability": "nonpayable",
      "type": "function"
    },
    {
      "inputs": [
        {
          "internalType": "address",
          "name": "newOwner",
          "type": "address"
        }
      ],
      "name": "transferOwnership",
      "outputs": [],
      "stateMutability": "nonpayable",
      "type": "function"
    },
    {
      "inputs": [
        {
          "internalType": "uint256",
          "name": "_ticketId",
          "type": "uint256"
        },
        {
          "internalType": "address",
          "name": "_to",
          "type": "address"
        }
      ],
      "name": "transferTicket",
      "outputs": [],
      "stateMutability": "nonpayable",
      "type": "function"
    },
    {
      "inputs": [
        {
          "internalType": "address",
          "name": "",
          "type": "address"
        },
        {
          "internalType": "uint256",
          "name": "",
          "type": "uint256"
        }
      ],
      "name": "userEvents",
      "outputs": [
        {
          "internalType": "uint256",
          "name": "",
          "type": "uint256"
        }
      ],
      "stateMutability": "view",
      "type": "function"
    },
    {
      "inputs": [
        {
          "internalType": "address",
          "name": "",
          "type": "address"
        },
        {
          "internalType": "uint256",
          "name": "",
          "type": "uint256"
        }
      ],
      "name": "userTickets",
      "outputs": [
        {
          "internalType": "uint256",
          "name": "",
          "type": "uint256"
        }
      ],
      "stateMutability": "view",
      "type": "function"
    },
    {
      "inputs": [
        {
          "internalType": "uint256",
          "name": "_eventId",
          "type": "uint256"
        }
      ],
      "name": "verifyAttendance",
      "outputs": [],
      "stateMutability": "nonpayable",
      "type": "function"
    }
  ],
  "bytecode": "0x60806040523480156200001157600080fd5b50604051620020c1380380620020c183398101604081905262000034916200012c565b806040518060400160405280600b81526020016a115d995b9d151a58dad95d60aa1b8152506040518060400160405280600381526020016245544b60e81b815250816000908162000086919062000203565b50600162000095828262000203565b5050506001600160a01b038116620000c757604051631e4fbdf760e01b81526000600482015260240160405180910390fd5b620000d281620000da565b5050620002cf565b600680546001600160a01b038381166001600160a01b0319831681179093556040519116919082907f8be0079c531659141344cd1fd0a4f28419497f9722a3daafe3b4186f6b6457e090600090a35050565b6000602082840312156200013f57600080fd5b81516001600160a01b03811681146200015757600080fd5b9392505050565b634e487b7160e01b600052604160045260246000fd5b600181811c908216806200018957607f821691505b602082108103620001aa57634e487b7160e01b600052602260045260246000fd5b50919050565b601f821115620001fe57600081815260208120601f850160051c81016020861015620001d95750805b601f850160051c820191505b81811015620001fa57828155600101620001e5565b5050505b505050565b81516001600160401b038111156200021f576200021f6200015e565b620002378162000230845462000174565b84620001b0565b602080601f8311600181146200026f5760008415620002565750858301515b600019600386901b1c1916600185901b178555620001fa565b600085815260208120601f198616915b82811015620002a0578886015182559484019460019091019084016200027f565b5085821015620002bf5787850151600019600388901b60f8161c191681555b5050505050600190811b01905550565b611de280620002df6000396000f3fe608060405234801561001057600080fd5b50600436106101c45760003560e01c8063686465b8116100f9578063b88d4fde11610097578063c87b56dd11610071578063c87b56dd146103d1578063cf260baf146103e4578063e985e9c5146103f7578063f2fde38b1461040a57600080fd5b8063b88d4fde14610398578063bdcf5b8e146103ab578063bdfc9893146103be57600080fd5b80638da5cb5b116100d35780638da5cb5b1461035957806395d89b411461036a578063a22cb46514610372578063b634a4df1461038557600080fd5b8063686465b81461033557806370a082311461033e578063715018a61461035157600080fd5b8063171e5ba21161016657806350b447121161014057806350b44712146102dc5780636352211e146102fc578063679ebf1a1461030f57806367dd74ca1461032257600080fd5b8063171e5ba2146102a357806323b872dd146102b657806342842e0e146102c957600080fd5b8063081812fc116101a2578063081812fc14610226578063091dbbd714610251578063095ea7b3146102685780630b7914301461027d57600080fd5b806301ffc9a7146101c95780630484a22f146101f157806306fdde0314610211575b600080fd5b6101dc6101d736600461171d565b61041d565b60405190151581526020015b60405180910390f35b6102046101ff366004611756565b61046f565b6040516101e89190611771565b6102196104db565b6040516101e89190611805565b610239610234366004611818565b61056d565b6040516001600160a01b0390911681526020016101e8565b61025a60085481565b6040519081526020016101e8565b61027b610276366004611831565b610596565b005b61029061028b366004611818565b6105a5565b6040516101e8979695949392919061185b565b6102046102b1366004611756565b61080b565b61027b6102c43660046118d1565b610875565b61027b6102d73660046118d1565b610905565b61025a6102ea366004611818565b600a6020526000908152604090205481565b61023961030a366004611818565b610925565b61027b61031d36600461190d565b610930565b61027b610330366004611818565b610a0e565b61025a60075481565b61025a61034c366004611756565b610b2e565b61027b610b76565b6006546001600160a01b0316610239565b610219610b8a565b61027b610380366004611939565b610b99565b61027b610393366004611818565b610ba4565b61027b6103a6366004611a01565b610c6c565b61027b6103b9366004611a9d565b610c83565b61025a6103cc366004611831565b610dd2565b6102196103df366004611818565b610e03565b61025a6103f2366004611831565b610e78565b6101dc610405366004611b52565b610e94565b61027b610418366004611756565b610ec2565b60006001600160e01b031982166380ac58cd60e01b148061044e57506001600160e01b03198216635b5e139f60e01b145b8061046957506301ffc9a760e01b6001600160e01b03198316145b92915050565b6001600160a01b0381166000908152600b60209081526040918290208054835181840281018401909452808452606093928301828280156104cf57602002820191906000526020600020905b8154815260200190600101908083116104bb575b50505050509050919050565b6060600080546104ea90611b7c565b80601f016020809104026020016040519081016040528092919081815260200182805461051690611b7c565b80156105635780601f1061053857610100808354040283529160200191610563565b820191906000526020600020905b81548152906001019060200180831161054657829003601f168201915b5050505050905090565b600061057882610f00565b506000828152600460205260409020546001600160a01b0316610469565b6105a1828233610f39565b5050565b6009602052600090815260409020805481906105c090611b7c565b80601f01602080910402602001604051908101604052809291908181526020018280546105ec90611b7c565b80156106395780601f1061060e57610100808354040283529160200191610639565b820191906000526020600020905b81548152906001019060200180831161061c57829003601f168201915b50505050509080600101805461064e90611b7c565b80601f016020809104026020016040519081016040528092919081815260200182805461067a90611b7c565b80156106c75780601f1061069c576101008083540402835291602001916106c7565b820191906000526020600020905b8154815290600101906020018083116106aa57829003601f168201915b5050505050908060020180546106dc90611b7c565b80601f016020809104026020016040519081016040528092919081815260200182805461070890611b7c565b80156107555780601f1061072a57610100808354040283529160200191610755565b820191906000526020600020905b81548152906001019060200180831161073857829003601f168201915b50505050509080600301805461076a90611b7c565b80601f016020809104026020016040519081016040528092919081815260200182805461079690611b7c565b80156107e35780601f106107b8576101008083540402835291602001916107e3565b820191906000526020600020905b8154815290600101906020018083116107c657829003601f168201915b5050505060048301546005840154600690940154929390926001600160a01b03909116915087565b6001600160a01b0381166000908152600c60209081526040918290208054835181840281018401909452808452606093928301828280156104cf57602002820191906000526020600020908154815260200190600101908083116104bb5750505050509050919050565b6001600160a01b0382166108a457604051633250574960e11b8152600060048201526024015b60405180910390fd5b60006108b1838333610f46565b9050836001600160a01b0316816001600160a01b0316146108ff576040516364283d7b60e01b81526001600160a01b038086166004830152602482018490528216604482015260640161089b565b50505050565b61092083838360405180602001604052806000815250610c6c565b505050565b600061046982610f00565b3361093a83610925565b6001600160a01b0316146109905760405162461bcd60e51b815260206004820152601b60248201527f4e6f7420746865206f776e6572206f6620746865207469636b65740000000000604482015260640161089b565b61099b33828461103f565b6001600160a01b0381166000818152600b602090815260408083208054600181018255908452928290209092018590558151858152339181019190915280820192909252517fd15524263ae66f75c1e604c47db6085085110f23ef7322b355179ac5e3b0783a9181900360600190a15050565b600081815260096020526040902060040154610a5e5760405162461bcd60e51b815260206004820152600f60248201526e139bc81d1a58dad95d1cc81b19599d608a1b604482015260640161089b565b60078054906000610a6e83611bcc565b90915550506040805160208082018352838252600780546000908152600a9092529290209051905554610aa29033906110ef565b336000908152600b6020908152604080832060075481546001810183559185528385209091015583835260099091528120600401805491610ae283611be5565b9091555050600754604080519182526020820183905233908201527fdfc495a9ab5027ebf451b0bde607c053b25fdebc892e8bd60c755d720bd51d1f906060015b60405180910390a150565b60006001600160a01b038216610b5a576040516322718ad960e21b81526000600482015260240161089b565b506001600160a01b031660009081526003602052604090205490565b610b7e611109565b610b886000611136565b565b6060600180546104ea90611b7c565b6105a1338383611188565b6000818152600960205260409020600501546001600160a01b03163314610c035760405162461bcd60e51b81526020600482015260136024820152722737ba103a34329032bb32b73a1037bbb732b960691b604482015260640161089b565b6000818152600960205260408120600601805491610c2083611bcc565b9091555050600081815260096020908152604091829020600601548251848152918201527f691d808750503e924020c0a3339b5bf18291c5ded130aa78092cb44a8d4b023a9101610b23565b610c77848484610875565b6108ff84848484611227565b60088054906000610c9383611bcc565b90915550506040805160e081018252868152602080820187905281830186905260608201859052608082018490523360a0830152600060c08301819052600854815260099091529190912081518190610cec9082611c4a565b5060208201516001820190610d019082611c4a565b5060408201516002820190610d169082611c4a565b5060608201516003820190610d2b9082611c4a565b506080820151600482015560a08201516005820180546001600160a01b0319166001600160a01b0390921691909117905560c090910151600690910155336000908152600c60209081526040808320600880548254600181018455928652939094200191909155905490517f9ce3d6db707bca4ba0eabed8fba1e2c013a1c0bc1132a764170a7854d198c73d91610dc3918890611d0a565b60405180910390a15050505050565b600c6020528160005260406000208181548110610dee57600080fd5b90600052602060002001600091509150505481565b6060610e0e82610f00565b506000610e2660408051602081019091526000815290565b90506000815111610e465760405180602001604052806000815250610e71565b80610e5084611350565b604051602001610e61929190611d23565b6040516020818303038152906040525b9392505050565b600b6020528160005260406000208181548110610dee57600080fd5b6001600160a01b03918216600090815260056020908152604080832093909416825291909152205460ff1690565b610eca611109565b6001600160a01b038116610ef457604051631e4fbdf760e01b81526000600482015260240161089b565b610efd81611136565b50565b6000818152600260205260408120546001600160a01b03168061046957604051637e27328960e01b81526004810184905260240161089b565b61092083838360016113e3565b6000828152600260205260408120546001600160a01b0390811690831615610f7357610f738184866114e9565b6001600160a01b03811615610fb157610f906000856000806113e3565b6001600160a01b038116600090815260036020526040902080546000190190555b6001600160a01b03851615610fe0576001600160a01b0385166000908152600360205260409020805460010190555b60008481526002602052604080822080546001600160a01b0319166001600160a01b0389811691821790925591518793918516917fddf252ad1be2c89b69c2b068fc378daa952ba7f163c4a11628f55a4df523b3ef91a4949350505050565b6001600160a01b03821661106957604051633250574960e11b81526000600482015260240161089b565b600061107783836000610f46565b90506001600160a01b0381166110a357604051637e27328960e01b81526004810183905260240161089b565b836001600160a01b0316816001600160a01b0316146108ff576040516364283d7b60e01b81526001600160a01b038086166004830152602482018490528216604482015260640161089b565b6105a182826040518060200160405280600081525061154d565b6006546001600160a01b03163314610b885760405163118cdaa760e01b815233600482015260240161089b565b600680546001600160a01b038381166001600160a01b0319831681179093556040519116919082907f8be0079c531659141344cd1fd0a4f28419497f9722a3daafe3b4186f6b6457e090600090a35050565b6001600160a01b0382166111ba57604051630b61174360e31b81526001600160a01b038316600482015260240161089b565b6001600160a01b03838116600081815260056020908152604080832094871680845294825291829020805460ff191686151590811790915591519182527f17307eab39ab6107e8899845ad3d59bd9653f200f220920489ca2b5937696c31910160405180910390a3505050565b6001600160a01b0383163b156108ff57604051630a85bd0160e11b81526001600160a01b0384169063150b7a0290611269903390889087908790600401611d52565b6020604051808303816000875af19250505080156112a4575060408051601f3d908101601f191682019092526112a191810190611d8f565b60015b61130d573d8080156112d2576040519150601f19603f3d011682016040523d82523d6000602084013e6112d7565b606091505b50805160000361130557604051633250574960e11b81526001600160a01b038516600482015260240161089b565b805181602001fd5b6001600160e01b03198116630a85bd0160e11b1461134957604051633250574960e11b81526001600160a01b038516600482015260240161089b565b5050505050565b6060600061135d83611564565b600101905060008167ffffffffffffffff81111561137d5761137d611975565b6040519080825280601f01601f1916602001820160405280156113a7576020820181803683370190505b5090508181016020015b600019016f181899199a1a9b1b9c1cb0b131b232b360811b600a86061a8153600a85049450846113b157509392505050565b80806113f757506001600160a01b03821615155b156114b957600061140784610f00565b90506001600160a01b038316158015906114335750826001600160a01b0316816001600160a01b031614155b801561144657506114448184610e94565b155b1561146f5760405163a9fbf51f60e01b81526001600160a01b038416600482015260240161089b565b81156114b75783856001600160a01b0316826001600160a01b03167f8c5be1e5ebec7d5bd14f71427d1e84f3dd0314c0f7b2291e5b200ac8c7c3b92560405160405180910390a45b505b5050600090815260046020526040902080546001600160a01b0319166001600160a01b0392909216919091179055565b6114f483838361163c565b610920576001600160a01b03831661152257604051637e27328960e01b81526004810182905260240161089b565b60405163177e802f60e01b81526001600160a01b03831660048201526024810182905260440161089b565b61155783836116a2565b6109206000848484611227565b60008072184f03e93ff9f4daa797ed6e38ed64bf6a1f0160401b83106115a35772184f03e93ff9f4daa797ed6e38ed64bf6a1f0160401b830492506040015b6d04ee2d6d415b85acef810000000083106115cf576d04ee2d6d415b85acef8100000000830492506020015b662386f26fc1000083106115ed57662386f26fc10000830492506010015b6305f5e1008310611605576305f5e100830492506008015b612710831061161957612710830492506004015b6064831061162b576064830492506002015b600a83106104695760010192915050565b60006001600160a01b0383161580159061169a5750826001600160a01b0316846001600160a01b0316148061167657506116768484610e94565b8061169a57506000828152600460205260409020546001600160a01b038481169116145b949350505050565b6001600160a01b0382166116cc57604051633250574960e11b81526000600482015260240161089b565b60006116da83836000610f46565b90506001600160a01b03811615610920576040516339e3563760e11b81526000600482015260240161089b565b6001600160e01b031981168114610efd57600080fd5b60006020828403121561172f57600080fd5b8135610e7181611707565b80356001600160a01b038116811461175157600080fd5b919050565b60006020828403121561176857600080fd5b610e718261173a565b6020808252825182820181905260009190848201906040850190845b818110156117a95783518352928401929184019160010161178d565b50909695505050505050565b60005b838110156117d05781810151838201526020016117b8565b50506000910152565b600081518084526117f18160208601602086016117b5565b601f01601f19169290920160200192915050565b602081526000610e7160208301846117d9565b60006020828403121561182a57600080fd5b5035919050565b6000806040838503121561184457600080fd5b61184d8361173a565b946020939093013593505050565b60e08152600061186e60e083018a6117d9565b8281036020840152611880818a6117d9565b9050828103604084015261189481896117d9565b905082810360608401526118a881886117d9565b608084019690965250506001600160a01b039290921660a083015260c090910152949350505050565b6000806000606084860312156118e657600080fd5b6118ef8461173a565b92506118fd6020850161173a565b9150604084013590509250925092565b6000806040838503121561192057600080fd5b823591506119306020840161173a565b90509250929050565b6000806040838503121561194c57600080fd5b6119558361173a565b91506020830135801515811461196a57600080fd5b809150509250929050565b634e487b7160e01b600052604160045260246000fd5b600067ffffffffffffffff808411156119a6576119a6611975565b604051601f8501601f19908116603f011681019082821181831017156119ce576119ce611975565b816040528093508581528686860111156119e757600080fd5b858560208301376000602087830101525050509392505050565b60008060008060808587031215611a1757600080fd5b611a208561173a565b9350611a2e6020860161173a565b925060408501359150606085013567ffffffffffffffff811115611a5157600080fd5b8501601f81018713611a6257600080fd5b611a718782356020840161198b565b91505092959194509250565b600082601f830112611a8e57600080fd5b610e718383356020850161198b565b600080600080600060a08688031215611ab557600080fd5b853567ffffffffffffffff80821115611acd57600080fd5b611ad989838a01611a7d565b96506020880135915080821115611aef57600080fd5b611afb89838a01611a7d565b95506040880135915080821115611b1157600080fd5b611b1d89838a01611a7d565b94506060880135915080821115611b3357600080fd5b50611b4088828901611a7d565b95989497509295608001359392505050565b60008060408385031215611b6557600080fd5b611b6e8361173a565b91506119306020840161173a565b600181811c90821680611b9057607f821691505b602082108103611bb057634e487b7160e01b600052602260045260246000fd5b50919050565b634e487b7160e01b600052601160045260246000fd5b600060018201611bde57611bde611bb6565b5060010190565b600081611bf457611bf4611bb6565b506000190190565b601f82111561092057600081815260208120601f850160051c81016020861015611c235750805b601f850160051c820191505b81811015611c4257828155600101611c2f565b505050505050565b815167ffffffffffffffff811115611c6457611c64611975565b611c7881611c728454611b7c565b84611bfc565b602080601f831160018114611cad5760008415611c955750858301515b600019600386901b1c1916600185901b178555611c42565b600085815260208120601f198616915b82811015611cdc57888601518255948401946001909101908401611cbd565b5085821015611cfa5787850151600019600388901b60f8161c191681555b5050505050600190811b01905550565b82815260406020820152600061169a60408301846117d9565b60008351611d358184602088016117b5565b835190830190611d498183602088016117b5565b01949350505050565b6001600160a01b0385811682528416602082015260408101839052608060608201819052600090611d85908301846117d9565b9695505050505050565b600060208284031215611da157600080fd5b8151610e718161170756fea2646970667358221220e7e5f2095412c42433ca88989384ef46dc1768db591280425e4cb17c0f30690464736f6c63430008140033",
  "linkReferences": {},
  "deployedLinkReferences": {}
}