{
  "_format": "hh-sol-artifact-1",
  "contractName": "EventTicketSystem",
  "sourceName": "contracts/EventTicketSystem.sol",
  "abi": [
    {
      "inputs": [
        {
          "internalType": "address",
          "name": "_owner",
          "type": "address"
        }
      ],
      "stateMutability": "nonpayable",
      "type": "constructor"
    },
    {
      "inputs": [
        {
          "internalType": "address",
          "name": "sender",
          "type": "address"
        },
        {
          "internalType": "uint256",
          "name": "tokenId",
          "type": "uint256"
        },
        {
          "internalType": "address",
          "name": "owner",
          "type": "address"
        }
      ],
      "name": "ERC721IncorrectOwner",
      "type": "error"
    },
    {
      "inputs": [
        {
          "internalType": "address",
          "name": "operator",
          "type": "address"
        },
        {
          "internalType": "uint256",
          "name": "tokenId",
          "type": "uint256"
        }
      ],
      "name": "ERC721InsufficientApproval",
      "type": "error"
    },
    {
      "inputs": [
        {
          "internalType": "address",
          "name": "approver",
          "type": "address"
        }
      ],
      "name": "ERC721InvalidApprover",
      "type": "error"
    },
    {
      "inputs": [
        {
          "internalType": "address",
          "name": "operator",
          "type": "address"
        }
      ],
      "name": "ERC721InvalidOperator",
      "type": "error"
    },
    {
      "inputs": [
        {
          "internalType": "address",
          "name": "owner",
          "type": "address"
        }
      ],
      "name": "ERC721InvalidOwner",
      "type": "error"
    },
    {
      "inputs": [
        {
          "internalType": "address",
          "name": "receiver",
          "type": "address"
        }
      ],
      "name": "ERC721InvalidReceiver",
      "type": "error"
    },
    {
      "inputs": [
        {
          "internalType": "address",
          "name": "sender",
          "type": "address"
        }
      ],
      "name": "ERC721InvalidSender",
      "type": "error"
    },
    {
      "inputs": [
        {
          "internalType": "uint256",
          "name": "tokenId",
          "type": "uint256"
        }
      ],
      "name": "ERC721NonexistentToken",
      "type": "error"
    },
    {
      "inputs": [
        {
          "internalType": "address",
          "name": "owner",
          "type": "address"
        }
      ],
      "name": "OwnableInvalidOwner",
      "type": "error"
    },
    {
      "inputs": [
        {
          "internalType": "address",
          "name": "account",
          "type": "address"
        }
      ],
      "name": "OwnableUnauthorizedAccount",
      "type": "error"
    },
    {
      "anonymous": false,
      "inputs": [
        {
          "indexed": true,
          "internalType": "address",
          "name": "owner",
          "type": "address"
        },
        {
          "indexed": true,
          "internalType": "address",
          "name": "approved",
          "type": "address"
        },
        {
          "indexed": true,
          "internalType": "uint256",
          "name": "tokenId",
          "type": "uint256"
        }
      ],
      "name": "Approval",
      "type": "event"
    },
    {
      "anonymous": false,
      "inputs": [
        {
          "indexed": true,
          "internalType": "address",
          "name": "owner",
          "type": "address"
        },
        {
          "indexed": true,
          "internalType": "address",
          "name": "operator",
          "type": "address"
        },
        {
          "indexed": false,
          "internalType": "bool",
          "name": "approved",
          "type": "bool"
        }
      ],
      "name": "ApprovalForAll",
      "type": "event"
    },
    {
      "anonymous": false,
      "inputs": [
        {
          "indexed": false,
          "internalType": "uint256",
          "name": "eventId",
          "type": "uint256"
        },
        {
          "indexed": false,
          "internalType": "uint256",
          "name": "attendeeCount",
          "type": "uint256"
        }
      ],
      "name": "AttendanceVerified",
      "type": "event"
    },
    {
      "anonymous": false,
      "inputs": [
        {
          "indexed": false,
          "internalType": "uint256",
          "name": "eventId",
          "type": "uint256"
        },
        {
          "indexed": false,
          "internalType": "string",
          "name": "eventName",
          "type": "string"
        }
      ],
      "name": "EventCreated",
      "type": "event"
    },
    {
      "anonymous": false,
      "inputs": [
        {
          "indexed": false,
          "internalType": "uint256",
          "name": "eventId",
          "type": "uint256"
        },
        {
          "indexed": false,
          "internalType": "enum EventTicketSystem.EventStatus",
          "name": "status",
          "type": "uint8"
        }
      ],
      "name": "EventStatusUpdated",
      "type": "event"
    },
    {
      "anonymous": false,
      "inputs": [
        {
          "indexed": true,
          "internalType": "address",
          "name": "previousOwner",
          "type": "address"
        },
        {
          "indexed": true,
          "internalType": "address",
          "name": "newOwner",
          "type": "address"
        }
      ],
      "name": "OwnershipTransferred",
      "type": "event"
    },
    {
      "anonymous": false,
      "inputs": [
        {
          "indexed": false,
          "internalType": "uint256",
          "name": "ticketId",
          "type": "uint256"
        },
        {
          "indexed": false,
          "internalType": "uint256",
          "name": "eventId",
          "type": "uint256"
        },
        {
          "indexed": false,
          "internalType": "address",
          "name": "buyer",
          "type": "address"
        }
      ],
      "name": "TicketBought",
      "type": "event"
    },
    {
      "anonymous": false,
      "inputs": [
        {
          "indexed": false,
          "internalType": "uint256",
          "name": "ticketId",
          "type": "uint256"
        },
        {
          "indexed": false,
          "internalType": "address",
          "name": "from",
          "type": "address"
        },
        {
          "indexed": false,
          "internalType": "address",
          "name": "to",
          "type": "address"
        }
      ],
      "name": "TicketTransferred",
      "type": "event"
    },
    {
      "anonymous": false,
      "inputs": [
        {
          "indexed": true,
          "internalType": "address",
          "name": "from",
          "type": "address"
        },
        {
          "indexed": true,
          "internalType": "address",
          "name": "to",
          "type": "address"
        },
        {
          "indexed": true,
          "internalType": "uint256",
          "name": "tokenId",
          "type": "uint256"
        }
      ],
      "name": "Transfer",
      "type": "event"
    },
    {
      "inputs": [
        {
          "internalType": "address",
          "name": "to",
          "type": "address"
        },
        {
          "internalType": "uint256",
          "name": "tokenId",
          "type": "uint256"
        }
      ],
      "name": "approve",
      "outputs": [],
      "stateMutability": "nonpayable",
      "type": "function"
    },
    {
      "inputs": [
        {
          "internalType": "address",
          "name": "owner",
          "type": "address"
        }
      ],
      "name": "balanceOf",
      "outputs": [
        {
          "internalType": "uint256",
          "name": "",
          "type": "uint256"
        }
      ],
      "stateMutability": "view",
      "type": "function"
    },
    {
      "inputs": [
        {
          "internalType": "uint256",
          "name": "_eventId",
          "type": "uint256"
        }
      ],
      "name": "buyTicket",
      "outputs": [],
      "stateMutability": "nonpayable",
      "type": "function"
    },
    {
      "inputs": [
        {
          "internalType": "string",
          "name": "_eventName",
          "type": "string"
        },
        {
          "internalType": "string",
          "name": "_eventDate",
          "type": "string"
        },
        {
          "internalType": "string",
          "name": "_location",
          "type": "string"
        },
        {
          "internalType": "string",
          "name": "_eventImage",
          "type": "string"
        },
        {
          "internalType": "uint256",
          "name": "_totalTickets",
          "type": "uint256"
        }
      ],
      "name": "createEvent",
      "outputs": [],
      "stateMutability": "nonpayable",
      "type": "function"
    },
    {
      "inputs": [],
      "name": "currentEventId",
      "outputs": [
        {
          "internalType": "uint256",
          "name": "",
          "type": "uint256"
        }
      ],
      "stateMutability": "view",
      "type": "function"
    },
    {
      "inputs": [],
      "name": "currentTicketId",
      "outputs": [
        {
          "internalType": "uint256",
          "name": "",
          "type": "uint256"
        }
      ],
      "stateMutability": "view",
      "type": "function"
    },
    {
      "inputs": [
        {
          "internalType": "uint256",
          "name": "",
          "type": "uint256"
        }
      ],
      "name": "events",
      "outputs": [
        {
          "internalType": "string",
          "name": "eventName",
          "type": "string"
        },
        {
          "internalType": "string",
          "name": "eventDate",
          "type": "string"
        },
        {
          "internalType": "string",
          "name": "location",
          "type": "string"
        },
        {
          "internalType": "string",
          "name": "eventImage",
          "type": "string"
        },
        {
          "internalType": "uint256",
          "name": "totalTickets",
          "type": "uint256"
        },
        {
          "internalType": "address",
          "name": "eventOwner",
          "type": "address"
        },
        {
          "internalType": "uint256",
          "name": "attendanceCount",
          "type": "uint256"
        },
        {
          "internalType": "enum EventTicketSystem.EventStatus",
          "name": "status",
          "type": "uint8"
        }
      ],
      "stateMutability": "view",
      "type": "function"
    },
    {
      "inputs": [
        {
          "internalType": "uint256",
          "name": "_eventId",
          "type": "uint256"
        }
      ],
      "name": "finalizeEvent",
      "outputs": [],
      "stateMutability": "nonpayable",
      "type": "function"
    },
    {
      "inputs": [
        {
          "internalType": "uint256",
          "name": "tokenId",
          "type": "uint256"
        }
      ],
      "name": "getApproved",
      "outputs": [
        {
          "internalType": "address",
          "name": "",
          "type": "address"
        }
      ],
      "stateMutability": "view",
      "type": "function"
    },
    {
      "inputs": [
        {
          "internalType": "uint256",
          "name": "_eventId",
          "type": "uint256"
        }
      ],
      "name": "getRemainingTickets",
      "outputs": [
        {
          "internalType": "uint256",
          "name": "",
          "type": "uint256"
        }
      ],
      "stateMutability": "view",
      "type": "function"
    },
    {
      "inputs": [
        {
          "internalType": "address",
          "name": "_user",
          "type": "address"
        }
      ],
      "name": "getUserEvents",
      "outputs": [
        {
          "internalType": "uint256[]",
          "name": "",
          "type": "uint256[]"
        }
      ],
      "stateMutability": "view",
      "type": "function"
    },
    {
      "inputs": [
        {
          "internalType": "address",
          "name": "_user",
          "type": "address"
        }
      ],
      "name": "getUserTickets",
      "outputs": [
        {
          "internalType": "uint256[]",
          "name": "",
          "type": "uint256[]"
        }
      ],
      "stateMutability": "view",
      "type": "function"
    },
    {
      "inputs": [
        {
          "internalType": "address",
          "name": "owner",
          "type": "address"
        },
        {
          "internalType": "address",
          "name": "operator",
          "type": "address"
        }
      ],
      "name": "isApprovedForAll",
      "outputs": [
        {
          "internalType": "bool",
          "name": "",
          "type": "bool"
        }
      ],
      "stateMutability": "view",
      "type": "function"
    },
    {
      "inputs": [],
      "name": "name",
      "outputs": [
        {
          "internalType": "string",
          "name": "",
          "type": "string"
        }
      ],
      "stateMutability": "view",
      "type": "function"
    },
    {
      "inputs": [],
      "name": "owner",
      "outputs": [
        {
          "internalType": "address",
          "name": "",
          "type": "address"
        }
      ],
      "stateMutability": "view",
      "type": "function"
    },
    {
      "inputs": [
        {
          "internalType": "uint256",
          "name": "tokenId",
          "type": "uint256"
        }
      ],
      "name": "ownerOf",
      "outputs": [
        {
          "internalType": "address",
          "name": "",
          "type": "address"
        }
      ],
      "stateMutability": "view",
      "type": "function"
    },
    {
      "inputs": [],
      "name": "renounceOwnership",
      "outputs": [],
      "stateMutability": "nonpayable",
      "type": "function"
    },
    {
      "inputs": [
        {
          "internalType": "address",
          "name": "from",
          "type": "address"
        },
        {
          "internalType": "address",
          "name": "to",
          "type": "address"
        },
        {
          "internalType": "uint256",
          "name": "tokenId",
          "type": "uint256"
        }
      ],
      "name": "safeTransferFrom",
      "outputs": [],
      "stateMutability": "nonpayable",
      "type": "function"
    },
    {
      "inputs": [
        {
          "internalType": "address",
          "name": "from",
          "type": "address"
        },
        {
          "internalType": "address",
          "name": "to",
          "type": "address"
        },
        {
          "internalType": "uint256",
          "name": "tokenId",
          "type": "uint256"
        },
        {
          "internalType": "bytes",
          "name": "data",
          "type": "bytes"
        }
      ],
      "name": "safeTransferFrom",
      "outputs": [],
      "stateMutability": "nonpayable",
      "type": "function"
    },
    {
      "inputs": [
        {
          "internalType": "address",
          "name": "operator",
          "type": "address"
        },
        {
          "internalType": "bool",
          "name": "approved",
          "type": "bool"
        }
      ],
      "name": "setApprovalForAll",
      "outputs": [],
      "stateMutability": "nonpayable",
      "type": "function"
    },
    {
      "inputs": [
        {
          "internalType": "bytes4",
          "name": "interfaceId",
          "type": "bytes4"
        }
      ],
      "name": "supportsInterface",
      "outputs": [
        {
          "internalType": "bool",
          "name": "",
          "type": "bool"
        }
      ],
      "stateMutability": "view",
      "type": "function"
    },
    {
      "inputs": [],
      "name": "symbol",
      "outputs": [
        {
          "internalType": "string",
          "name": "",
          "type": "string"
        }
      ],
      "stateMutability": "view",
      "type": "function"
    },
    {
      "inputs": [
        {
          "internalType": "uint256",
          "name": "",
          "type": "uint256"
        }
      ],
      "name": "tickets",
      "outputs": [
        {
          "internalType": "uint256",
          "name": "eventId",
          "type": "uint256"
        }
      ],
      "stateMutability": "view",
      "type": "function"
    },
    {
      "inputs": [
        {
          "internalType": "uint256",
          "name": "tokenId",
          "type": "uint256"
        }
      ],
      "name": "tokenURI",
      "outputs": [
        {
          "internalType": "string",
          "name": "",
          "type": "string"
        }
      ],
      "stateMutability": "view",
      "type": "function"
    },
    {
      "inputs": [
        {
          "internalType": "address",
          "name": "from",
          "type": "address"
        },
        {
          "internalType": "address",
          "name": "to",
          "type": "address"
        },
        {
          "internalType": "uint256",
          "name": "tokenId",
          "type": "uint256"
        }
      ],
      "name": "transferFrom",
      "outputs": [],
      "stateMutability": "nonpayable",
      "type": "function"
    },
    {
      "inputs": [
        {
          "internalType": "address",
          "name": "newOwner",
          "type": "address"
        }
      ],
      "name": "transferOwnership",
      "outputs": [],
      "stateMutability": "nonpayable",
      "type": "function"
    },
    {
      "inputs": [
        {
          "internalType": "uint256",
          "name": "_ticketId",
          "type": "uint256"
        },
        {
          "internalType": "address",
          "name": "_to",
          "type": "address"
        }
      ],
      "name": "transferTicket",
      "outputs": [],
      "stateMutability": "nonpayable",
      "type": "function"
    },
    {
      "inputs": [
        {
          "internalType": "address",
          "name": "",
          "type": "address"
        },
        {
          "internalType": "uint256",
          "name": "",
          "type": "uint256"
        }
      ],
      "name": "userEvents",
      "outputs": [
        {
          "internalType": "uint256",
          "name": "",
          "type": "uint256"
        }
      ],
      "stateMutability": "view",
      "type": "function"
    },
    {
      "inputs": [
        {
          "internalType": "address",
          "name": "",
          "type": "address"
        },
        {
          "internalType": "uint256",
          "name": "",
          "type": "uint256"
        }
      ],
      "name": "userTickets",
      "outputs": [
        {
          "internalType": "uint256",
          "name": "",
          "type": "uint256"
        }
      ],
      "stateMutability": "view",
      "type": "function"
    },
    {
      "inputs": [
        {
          "internalType": "uint256",
          "name": "_eventId",
          "type": "uint256"
        }
      ],
      "name": "verifyAttendance",
      "outputs": [],
      "stateMutability": "nonpayable",
      "type": "function"
    }
  ],
  "bytecode": "0x60806040523480156200001157600080fd5b50604051620023b8380380620023b883398101604081905262000034916200012c565b806040518060400160405280600b81526020016a115d995b9d151a58dad95d60aa1b8152506040518060400160405280600381526020016245544b60e81b815250816000908162000086919062000203565b50600162000095828262000203565b5050506001600160a01b038116620000c757604051631e4fbdf760e01b81526000600482015260240160405180910390fd5b620000d281620000da565b5050620002cf565b600680546001600160a01b038381166001600160a01b0319831681179093556040519116919082907f8be0079c531659141344cd1fd0a4f28419497f9722a3daafe3b4186f6b6457e090600090a35050565b6000602082840312156200013f57600080fd5b81516001600160a01b03811681146200015757600080fd5b9392505050565b634e487b7160e01b600052604160045260246000fd5b600181811c908216806200018957607f821691505b602082108103620001aa57634e487b7160e01b600052602260045260246000fd5b50919050565b601f821115620001fe57600081815260208120601f850160051c81016020861015620001d95750805b601f850160051c820191505b81811015620001fa57828155600101620001e5565b5050505b505050565b81516001600160401b038111156200021f576200021f6200015e565b620002378162000230845462000174565b84620001b0565b602080601f8311600181146200026f5760008415620002565750858301515b600019600386901b1c1916600185901b178555620001fa565b600085815260208120601f198616915b82811015620002a0578886015182559484019460019091019084016200027f565b5085821015620002bf5787850151600019600388901b60f8161c191681555b5050505050600190811b01905550565b6120d980620002df6000396000f3fe608060405234801561001057600080fd5b50600436106101da5760003560e01c806370a0823111610104578063b634a4df116100a2578063c87b56dd11610071578063c87b56dd1461041e578063cf260baf14610431578063e985e9c514610444578063f2fde38b1461045757600080fd5b8063b634a4df146103d2578063b88d4fde146103e5578063bdcf5b8e146103f8578063bdfc98931461040b57600080fd5b80638da5cb5b116100de5780638da5cb5b1461039357806395d89b41146103a45780639b71e673146103ac578063a22cb465146103bf57600080fd5b806370a0823114610355578063715018a61461036857806380af305a1461037057600080fd5b8063171e5ba21161017c5780636352211e1161014b5780636352211e14610313578063679ebf1a1461032657806367dd74ca14610339578063686465b81461034c57600080fd5b8063171e5ba2146102ba57806323b872dd146102cd57806342842e0e146102e057806350b44712146102f357600080fd5b8063081812fc116101b8578063081812fc1461023c578063091dbbd714610267578063095ea7b31461027e5780630b7914301461029357600080fd5b806301ffc9a7146101df5780630484a22f1461020757806306fdde0314610227575b600080fd5b6101f26101ed3660046119b3565b61046a565b60405190151581526020015b60405180910390f35b61021a6102153660046119ec565b6104bc565b6040516101fe9190611a07565b61022f610528565b6040516101fe9190611a9b565b61024f61024a366004611aae565b6105ba565b6040516001600160a01b0390911681526020016101fe565b61027060085481565b6040519081526020016101fe565b61029161028c366004611ac7565b6105e3565b005b6102a66102a1366004611aae565b6105f2565b6040516101fe989796959493929190611b29565b61021a6102c83660046119ec565b610860565b6102916102db366004611bb4565b6108ca565b6102916102ee366004611bb4565b61095a565b610270610301366004611aae565b600a6020526000908152604090205481565b61024f610321366004611aae565b61097a565b610291610334366004611bf0565b610985565b610291610347366004611aae565b610a63565b61027060075481565b6102706103633660046119ec565b610c5b565b610291610ca3565b61027061037e366004611aae565b60009081526009602052604090206004015490565b6006546001600160a01b031661024f565b61022f610cb7565b6102916103ba366004611aae565b610cc6565b6102916103cd366004611c1c565b610de9565b6102916103e0366004611aae565b610df4565b6102916103f3366004611ce4565b610ebc565b610291610406366004611d80565b610ed3565b610270610419366004611ac7565b61106b565b61022f61042c366004611aae565b61109c565b61027061043f366004611ac7565b611111565b6101f2610452366004611e35565b61112d565b6102916104653660046119ec565b61115b565b60006001600160e01b031982166380ac58cd60e01b148061049b57506001600160e01b03198216635b5e139f60e01b145b806104b657506301ffc9a760e01b6001600160e01b03198316145b92915050565b6001600160a01b0381166000908152600b602090815260409182902080548351818402810184019094528084526060939283018282801561051c57602002820191906000526020600020905b815481526020019060010190808311610508575b50505050509050919050565b60606000805461053790611e5f565b80601f016020809104026020016040519081016040528092919081815260200182805461056390611e5f565b80156105b05780601f10610585576101008083540402835291602001916105b0565b820191906000526020600020905b81548152906001019060200180831161059357829003601f168201915b5050505050905090565b60006105c582611196565b506000828152600460205260409020546001600160a01b03166104b6565b6105ee8282336111cf565b5050565b60096020526000908152604090208054819061060d90611e5f565b80601f016020809104026020016040519081016040528092919081815260200182805461063990611e5f565b80156106865780601f1061065b57610100808354040283529160200191610686565b820191906000526020600020905b81548152906001019060200180831161066957829003601f168201915b50505050509080600101805461069b90611e5f565b80601f01602080910402602001604051908101604052809291908181526020018280546106c790611e5f565b80156107145780601f106106e957610100808354040283529160200191610714565b820191906000526020600020905b8154815290600101906020018083116106f757829003601f168201915b50505050509080600201805461072990611e5f565b80601f016020809104026020016040519081016040528092919081815260200182805461075590611e5f565b80156107a25780601f10610777576101008083540402835291602001916107a2565b820191906000526020600020905b81548152906001019060200180831161078557829003601f168201915b5050505050908060030180546107b790611e5f565b80601f01602080910402602001604051908101604052809291908181526020018280546107e390611e5f565b80156108305780601f1061080557610100808354040283529160200191610830565b820191906000526020600020905b81548152906001019060200180831161081357829003601f168201915b50505050600483015460058401546006850154600790950154939491936001600160a01b03909116925060ff1688565b6001600160a01b0381166000908152600c602090815260409182902080548351818402810184019094528084526060939283018282801561051c57602002820191906000526020600020908154815260200190600101908083116105085750505050509050919050565b6001600160a01b0382166108f957604051633250574960e11b8152600060048201526024015b60405180910390fd5b60006109068383336111dc565b9050836001600160a01b0316816001600160a01b031614610954576040516364283d7b60e01b81526001600160a01b03808616600483015260248201849052821660448201526064016108f0565b50505050565b61097583838360405180602001604052806000815250610ebc565b505050565b60006104b682611196565b3361098f8361097a565b6001600160a01b0316146109e55760405162461bcd60e51b815260206004820152601b60248201527f4e6f7420746865206f776e6572206f6620746865207469636b6574000000000060448201526064016108f0565b6109f03382846112d5565b6001600160a01b0381166000818152600b602090815260408083208054600181018255908452928290209092018590558151858152339181019190915280820192909252517fd15524263ae66f75c1e604c47db6085085110f23ef7322b355179ac5e3b0783a9181900360600190a15050565b60008181526009602052604081206007015460ff166002811115610a8957610a89611af1565b14610acc5760405162461bcd60e51b81526020600482015260136024820152724576656e74206973206e6f742061637469766560681b60448201526064016108f0565b600081815260096020526040902060040154610b1c5760405162461bcd60e51b815260206004820152600f60248201526e139bc81d1a58dad95d1cc81b19599d608a1b60448201526064016108f0565b60078054906000610b2c83611eaf565b90915550506040805160208082018352838252600780546000908152600a9092529290209051905554610b60903390611385565b336000908152600b6020908152604080832060075481546001810183559185528385209091015583835260099091528120600401805491610ba083611ec8565b909155505060075460408051918252602082018390523382820152517fdfc495a9ab5027ebf451b0bde607c053b25fdebc892e8bd60c755d720bd51d1f9181900360600190a16000818152600960205260408120600401549003610c585760008181526009602052604090819020600701805460ff1916600190811790915590517f65cc7c497270aae06b293915c942e25ce643060c84cdfa4552897668afb62e9291610c4f91849190611edf565b60405180910390a15b50565b60006001600160a01b038216610c87576040516322718ad960e21b8152600060048201526024016108f0565b506001600160a01b031660009081526003602052604090205490565b610cab61139f565b610cb560006113cc565b565b60606001805461053790611e5f565b6000818152600960205260409020600501546001600160a01b03163314610d255760405162461bcd60e51b81526020600482015260136024820152722737ba103a34329032bb32b73a1037bbb732b960691b60448201526064016108f0565b60008181526009602052604081206007015460ff166002811115610d4b57610d4b611af1565b14610d985760405162461bcd60e51b815260206004820152601760248201527f4576656e7420616c72656164792066696e616c697a656400000000000000000060448201526064016108f0565b60008181526009602052604090819020600701805460ff1916600290811790915590517f65cc7c497270aae06b293915c942e25ce643060c84cdfa4552897668afb62e9291610c4f91849190611edf565b6105ee33838361141e565b6000818152600960205260409020600501546001600160a01b03163314610e535760405162461bcd60e51b81526020600482015260136024820152722737ba103a34329032bb32b73a1037bbb732b960691b60448201526064016108f0565b6000818152600960205260408120600601805491610e7083611eaf565b9091555050600081815260096020908152604091829020600601548251848152918201527f691d808750503e924020c0a3339b5bf18291c5ded130aa78092cb44a8d4b023a9101610c4f565b610ec78484846108ca565b610954848484846114bd565b60088054906000610ee383611eaf565b9190505550604051806101000160405280868152602001858152602001848152602001838152602001828152602001336001600160a01b031681526020016000815260200160006002811115610f3b57610f3b611af1565b9052600854600090815260096020526040902081518190610f5c9082611f41565b5060208201516001820190610f719082611f41565b5060408201516002820190610f869082611f41565b5060608201516003820190610f9b9082611f41565b506080820151600482015560a08201516005820180546001600160a01b0319166001600160a01b0390921691909117905560c0820151600682015560e082015160078201805460ff19166001836002811115610ff957610ff9611af1565b021790555050336000908152600c60209081526040808320600880548254600181018455928652939094200191909155905490517f9ce3d6db707bca4ba0eabed8fba1e2c013a1c0bc1132a764170a7854d198c73d925061105c91908890612001565b60405180910390a15050505050565b600c602052816000526040600020818154811061108757600080fd5b90600052602060002001600091509150505481565b60606110a782611196565b5060006110bf60408051602081019091526000815290565b905060008151116110df576040518060200160405280600081525061110a565b806110e9846115e6565b6040516020016110fa92919061201a565b6040516020818303038152906040525b9392505050565b600b602052816000526040600020818154811061108757600080fd5b6001600160a01b03918216600090815260056020908152604080832093909416825291909152205460ff1690565b61116361139f565b6001600160a01b03811661118d57604051631e4fbdf760e01b8152600060048201526024016108f0565b610c58816113cc565b6000818152600260205260408120546001600160a01b0316806104b657604051637e27328960e01b8152600481018490526024016108f0565b6109758383836001611679565b6000828152600260205260408120546001600160a01b03908116908316156112095761120981848661177f565b6001600160a01b0381161561124757611226600085600080611679565b6001600160a01b038116600090815260036020526040902080546000190190555b6001600160a01b03851615611276576001600160a01b0385166000908152600360205260409020805460010190555b60008481526002602052604080822080546001600160a01b0319166001600160a01b0389811691821790925591518793918516917fddf252ad1be2c89b69c2b068fc378daa952ba7f163c4a11628f55a4df523b3ef91a4949350505050565b6001600160a01b0382166112ff57604051633250574960e11b8152600060048201526024016108f0565b600061130d838360006111dc565b90506001600160a01b03811661133957604051637e27328960e01b8152600481018390526024016108f0565b836001600160a01b0316816001600160a01b031614610954576040516364283d7b60e01b81526001600160a01b03808616600483015260248201849052821660448201526064016108f0565b6105ee8282604051806020016040528060008152506117e3565b6006546001600160a01b03163314610cb55760405163118cdaa760e01b81523360048201526024016108f0565b600680546001600160a01b038381166001600160a01b0319831681179093556040519116919082907f8be0079c531659141344cd1fd0a4f28419497f9722a3daafe3b4186f6b6457e090600090a35050565b6001600160a01b03821661145057604051630b61174360e31b81526001600160a01b03831660048201526024016108f0565b6001600160a01b03838116600081815260056020908152604080832094871680845294825291829020805460ff191686151590811790915591519182527f17307eab39ab6107e8899845ad3d59bd9653f200f220920489ca2b5937696c31910160405180910390a3505050565b6001600160a01b0383163b1561095457604051630a85bd0160e11b81526001600160a01b0384169063150b7a02906114ff903390889087908790600401612049565b6020604051808303816000875af192505050801561153a575060408051601f3d908101601f1916820190925261153791810190612086565b60015b6115a3573d808015611568576040519150601f19603f3d011682016040523d82523d6000602084013e61156d565b606091505b50805160000361159b57604051633250574960e11b81526001600160a01b03851660048201526024016108f0565b805181602001fd5b6001600160e01b03198116630a85bd0160e11b146115df57604051633250574960e11b81526001600160a01b03851660048201526024016108f0565b5050505050565b606060006115f3836117fa565b600101905060008167ffffffffffffffff81111561161357611613611c58565b6040519080825280601f01601f19166020018201604052801561163d576020820181803683370190505b5090508181016020015b600019016f181899199a1a9b1b9c1cb0b131b232b360811b600a86061a8153600a850494508461164757509392505050565b808061168d57506001600160a01b03821615155b1561174f57600061169d84611196565b90506001600160a01b038316158015906116c95750826001600160a01b0316816001600160a01b031614155b80156116dc57506116da818461112d565b155b156117055760405163a9fbf51f60e01b81526001600160a01b03841660048201526024016108f0565b811561174d5783856001600160a01b0316826001600160a01b03167f8c5be1e5ebec7d5bd14f71427d1e84f3dd0314c0f7b2291e5b200ac8c7c3b92560405160405180910390a45b505b5050600090815260046020526040902080546001600160a01b0319166001600160a01b0392909216919091179055565b61178a8383836118d2565b610975576001600160a01b0383166117b857604051637e27328960e01b8152600481018290526024016108f0565b60405163177e802f60e01b81526001600160a01b0383166004820152602481018290526044016108f0565b6117ed8383611938565b61097560008484846114bd565b60008072184f03e93ff9f4daa797ed6e38ed64bf6a1f0160401b83106118395772184f03e93ff9f4daa797ed6e38ed64bf6a1f0160401b830492506040015b6d04ee2d6d415b85acef81000000008310611865576d04ee2d6d415b85acef8100000000830492506020015b662386f26fc10000831061188357662386f26fc10000830492506010015b6305f5e100831061189b576305f5e100830492506008015b61271083106118af57612710830492506004015b606483106118c1576064830492506002015b600a83106104b65760010192915050565b60006001600160a01b038316158015906119305750826001600160a01b0316846001600160a01b0316148061190c575061190c848461112d565b8061193057506000828152600460205260409020546001600160a01b038481169116145b949350505050565b6001600160a01b03821661196257604051633250574960e11b8152600060048201526024016108f0565b6000611970838360006111dc565b90506001600160a01b03811615610975576040516339e3563760e11b8152600060048201526024016108f0565b6001600160e01b031981168114610c5857600080fd5b6000602082840312156119c557600080fd5b813561110a8161199d565b80356001600160a01b03811681146119e757600080fd5b919050565b6000602082840312156119fe57600080fd5b61110a826119d0565b6020808252825182820181905260009190848201906040850190845b81811015611a3f57835183529284019291840191600101611a23565b50909695505050505050565b60005b83811015611a66578181015183820152602001611a4e565b50506000910152565b60008151808452611a87816020860160208601611a4b565b601f01601f19169290920160200192915050565b60208152600061110a6020830184611a6f565b600060208284031215611ac057600080fd5b5035919050565b60008060408385031215611ada57600080fd5b611ae3836119d0565b946020939093013593505050565b634e487b7160e01b600052602160045260246000fd5b60038110611b2557634e487b7160e01b600052602160045260246000fd5b9052565b6000610100808352611b3d8184018c611a6f565b90508281036020840152611b51818b611a6f565b90508281036040840152611b65818a611a6f565b90508281036060840152611b798189611a6f565b608084018890526001600160a01b03871660a085015260c084018690529150611ba7905060e0830184611b07565b9998505050505050505050565b600080600060608486031215611bc957600080fd5b611bd2846119d0565b9250611be0602085016119d0565b9150604084013590509250925092565b60008060408385031215611c0357600080fd5b82359150611c13602084016119d0565b90509250929050565b60008060408385031215611c2f57600080fd5b611c38836119d0565b915060208301358015158114611c4d57600080fd5b809150509250929050565b634e487b7160e01b600052604160045260246000fd5b600067ffffffffffffffff80841115611c8957611c89611c58565b604051601f8501601f19908116603f01168101908282118183101715611cb157611cb1611c58565b81604052809350858152868686011115611cca57600080fd5b858560208301376000602087830101525050509392505050565b60008060008060808587031215611cfa57600080fd5b611d03856119d0565b9350611d11602086016119d0565b925060408501359150606085013567ffffffffffffffff811115611d3457600080fd5b8501601f81018713611d4557600080fd5b611d5487823560208401611c6e565b91505092959194509250565b600082601f830112611d7157600080fd5b61110a83833560208501611c6e565b600080600080600060a08688031215611d9857600080fd5b853567ffffffffffffffff80821115611db057600080fd5b611dbc89838a01611d60565b96506020880135915080821115611dd257600080fd5b611dde89838a01611d60565b95506040880135915080821115611df457600080fd5b611e0089838a01611d60565b94506060880135915080821115611e1657600080fd5b50611e2388828901611d60565b95989497509295608001359392505050565b60008060408385031215611e4857600080fd5b611e51836119d0565b9150611c13602084016119d0565b600181811c90821680611e7357607f821691505b602082108103611e9357634e487b7160e01b600052602260045260246000fd5b50919050565b634e487b7160e01b600052601160045260246000fd5b600060018201611ec157611ec1611e99565b5060010190565b600081611ed757611ed7611e99565b506000190190565b8281526040810161110a6020830184611b07565b601f82111561097557600081815260208120601f850160051c81016020861015611f1a5750805b601f850160051c820191505b81811015611f3957828155600101611f26565b505050505050565b815167ffffffffffffffff811115611f5b57611f5b611c58565b611f6f81611f698454611e5f565b84611ef3565b602080601f831160018114611fa45760008415611f8c5750858301515b600019600386901b1c1916600185901b178555611f39565b600085815260208120601f198616915b82811015611fd357888601518255948401946001909101908401611fb4565b5085821015611ff15787850151600019600388901b60f8161c191681555b5050505050600190811b01905550565b8281526040602082015260006119306040830184611a6f565b6000835161202c818460208801611a4b565b835190830190612040818360208801611a4b565b01949350505050565b6001600160a01b038581168252841660208201526040810183905260806060820181905260009061207c90830184611a6f565b9695505050505050565b60006020828403121561209857600080fd5b815161110a8161199d56fea264697066735822122000908a30611d6e513f1cff926464fc08f6396917feec423072bb8c09f0f766be64736f6c63430008140033",
  "linkReferences": {},
  "deployedLinkReferences": {}
}